:0600000002001602004D93
:0F001300020058D2AFD2A8D288D2AAD28A780AD5
:0F00220076CF0876E70876F30876E70876FC08CD
:0F00310076F37408F5A07A037401F580E6F59074
:0F004000020043EA14FA604D790A020063E5A05A
:0F004F0075F00284F5A0C28932E5A075F002A415
:10005E00F5A0C28B32D9FE020068E5A06035E580BE
:0F006E0075F002A4F5809480600280C9E590FBD4
:10007D00E5A05B701F7401F58018E6F590740A9881
:10008D00600280B2780F80AE7A04E5A075F002A40C
:0F009D00F5A080A274FFF580F5900200AA740010
:0600AC00F580F59080EFE5
:00000001FF
